:100000000C9463000C9475000C9475000C947500AE
:100010000C9475000C9475000C9475000C9475008C
:100020000C9475000C9475000C9475000C9475007C
:100030000C9475000C9475000C9475000C9475006C
:100040000C9417010C9475000C9475000C947500B9
:100050000C9475000C9475000C9475000C9475004C
:100060000C9475000C947500FD0114023D025802B9
:1000700073028E02A90200000000240027002A005B
:1000800000000000250028002B00040404040404E0
:100090000404020202020202030303030303010237
:1000A0000408102040800102040810200102040806
:1000B00010200000000800020100000304070000F7
:1000C00000000000000011241FBECFEFD8E0DEBF0B
:1000D000CDBF21E0A0E0B1E001C01D92A331B20785
:1000E000E1F70E9461010C94D9020C94000090E0A9
:1000F000FC01EE54FF4F3491FC01E256FF4F249176
:10010000FC01E657FF4FE491EE2309F43BC0332393
:1001100039F1333091F038F43130A9F0323001F553
:1001200084B58F7D12C0373091F03830A1F0343073
:10013000B9F4809180008F7D03C0809180008F771B
:10014000809380000DC084B58F7784BD09C08091F5
:10015000B0008F7703C08091B0008F7D8093B00096
:10016000F0E0EE0FFF1FE058FF4FA591B4918FB75D
:10017000F894EC91611103C020952E2301C02E2B21
:100180002C938FBF0895CF93DF9390E0FC01E2564C
:10019000FF4F2491FC01E657FF4F8491882361F1C2
:1001A00090E0880F991FFC01EA58FF4FC591D49148
:1001B000FC01E058FF4FA591B491611109C09FB7B0
:1001C000F8948881209582238883EC912E230BC09C
:1001D000623061F49FB7F8943881822F8095832331
:1001E0008883EC912E2B2C939FBF06C08FB7F89479
:1001F000E8812E2B28838FBFDF91CF9108959093B4
:100200000901809308012FB7F89480910F01909114
:100210001001A0911101B09112012FBF8093040130
:1002200090930501A0930601B093070108951F92D2
:100230000F920FB60F9211242F933F938F939F939A
:10024000AF93BF9380910F0190911001A091110184
:10025000B091120130910E0123E0230F2D3720F4CD
:100260000196A11DB11D05C026E8230F0296A11D10
:10027000B11D20930E0180930F0190931001A09364
:100280001101B093120180910A0190910B01A0918C
:100290000C01B0910D010196A11DB11D80930A01C1
:1002A00090930B01A0930C01B0930D01BF91AF91FE
:1002B0009F918F913F912F910F900FBE0F901F90A4
:1002C0001895789484B5826084BD84B5816084BDBE
:1002D00085B5826085BD85B5816085BD80916E00E4
:1002E000816080936E001092810080918100826015
:1002F0008093810080918100816080938100809152
:1003000080008160809380008091B1008460809340
:10031000B1008091B00081608093B00080917A003C
:10032000846080937A0080917A00826080937A0062
:1003300080917A00816080937A0080917A00806851
:1003400080937A001092C10061E089E00E94C300AE
:1003500060E089E00E94770061E08AE00E94C300CB
:1003600060E08AE00E94770061E08DE00E94C300B7
:1003700060E08DE00E947700C2E0D0E0CE010997F6
:10038000029758F0CD30D10541F062E08C2F0E94E9
:10039000C30060E08C2F0E9477002196CE30D105FB
:1003A00069F72FB7F89480910F0190911001A091F7
:1003B0001101B09112012FBF8093040190930501A8
:1003C000A0930601B0930701C0E0D0E08FB7F89486
:1003D000C0900F01D0901001E0901101F090120137
:1003E0008FBFE0910801F0910901E730F10508F0B5
:1003F000D0C0EC5CFF4F0C94D3028091040190912B
:100400000501A0910601B0910701A7019601281BE3
:10041000390B4A0B5B0BDA01C90188389341A105FE
:10042000B10508F4BAC016C0809100019091010195
:10043000A0910201B0910301A7019601281B390B7D
:100440004A0B5B0BDA01C90180369644A742B540DE
:1004500008F4A3C061E08DE00E947700C092000123
:10046000D0920101E0920201F092030161E089E083
:100470000E94770082E090E08EC08091040190910C
:100480000501A0910601B0910701C81AD90AEA0A2C
:10049000FB0A47E7C41641E0D406E104F10408F47E
:1004A0007CC060E089E00E94770083E090E073C048
:1004B0008091040190910501A0910601B09107017E
:1004C000C81AD90AEA0AFB0A58EBC5165BE0D5063A
:1004D000E104F10408F461C061E08AE00E94770061
:1004E00084E090E058C08091040190910501A091B2
:1004F0000601B0910701C81AD90AEA0AFB0A87E780
:10050000C81681E0D806E104F10408F446C060E0B2
:100510008AE00E94770085E090E03DC08091040170
:1005200090910501A0910601B0910701C81AD90A5E
:10053000EA0AFB0A20E8C2162EEED20626E3E206FD
:10054000F10458F161E089E00E94770086E090E0D4
:1005500022C08091040190910501A0910601B09103
:100560000701C81AD90AEA0AFB0A37E7C31631E0BD
:10057000D306E104F10488F060E089E00E9477008E
:1005800081E090E00E94FF0060E08DE00E94770033
:1005900004C080E090E00E94FF00209709F416CF8D
:1005A0000E94000013CFEE0FFF1F0590F491E02D85
:0605B0000994F894FFCF4E
:00000001FF
